:100000000C9462000C94E5090C94BE090C948A00CF
:100010000C948A000C948A000C948A000C948A0038
:100020000C948A000C948A000C948A000C940C0A9C
:100030000C948A000C948A000C948A000C948A0018
:100040000C9474090C948A000C9442090C941C09B9
:100050000C948A000C948A000C948A000C948A00F8
:100060000C948A000C948A000000000025002800EF
:100070002B0000000000240027002A0000000000E0
:1000800023002600290004040404040404040202DA
:100090000202020203030303030301020408102007
:1000A0004080010204081020010204081020000012
:1000B0000008000201000003040700000000000027
:1000C0000000C80A11241FBECFEFD8E0DEBFCDBFAD
:1000D00012E0A0E0B1E0ECE1FEE102C005900D927B
:1000E000A234B107D9F723E0A2E4B2E001C01D9227
:1000F000AA36B207E1F710E0C2E6D0E004C02197CB
:10010000FE010E94E60EC136D107C9F70E94420BDC
:100110000C940C0F0C940000CF92DF92EF92FF92A0
:10012000DC01A03282E0B807D4F5A53BB10514F09C
:10013000A4EBB0E04091680328E830E0241B3109CB
:1001400047FD3395220F331F220F331F6901330FF1
:10015000EE08FF084091690328E532E0241B3109CD
:1001600047FD3395220F331F220F331F032E000C40
:10017000440B550B2C193D094E095F09B7FF02C00E
:10018000B0E0A0E00E948D0E24EB30E040E050E0B3
:100190000E94630EC20ED31EE41EF51ED601E0912E
:1001A0006703EC3080F52091680388E890E0821BBB
:1001B000910927FD9395880F991F880F991FA817FC
:1001C000B90784F02091690388E592E0821B9109C8
:1001D00027FD9395880F991F880F991FA817B907B6
:1001E0000CF4CD010297880F991F4FB7F8942E2F6A
:1001F00030E0F901EE0FFF1FE20FF31FEE5BFC4F43
:10020000928381834FBFFF90EF90DF90CF9008954E
:1002100081E080937702089580E991E00895AF929C
:10022000BF92CF92DF92EF92FF920F931F93CF93E3
:10023000DF936C017B018B01040F151FEB015E0145
:10024000AE18BF08C017D10759F06991D601ED91DA
:10025000FC910190F081E02DC6010995892B79F779
:10026000C501DF91CF911F910F91FF90EF90DF902B
:10027000CF90BF90AF900895FC01538D448D252FF2
:1002800030E0842F90E0821B930B541710F0CF9630
:10029000089501970895FC01918D828D981761F062
:1002A000A28DAE0FBF2FB11D5D968C91928D9F5F79
:1002B0009F73928F90E008958FEF9FEF0895FC0158
:1002C000918D828D981731F0828DE80FF11D858D0B
:1002D00090E008958FEF9FEF0895FC01918D228D9E
:1002E000892F90E0805C9F4F821B91098F73992723
:1002F000089588E992E00E946D0121E0892B09F4BC
:1003000020E0822F089580E090E0892B29F00E9460
:10031000790181110C9400000895FC01A48DA80FAF
:10032000B92FB11DA35ABF4F2C91848D90E0019637
:100330008F739927848FA689B7892C93A089B18957
:100340008C91837080648C93938D848D981306C0F8
:100350000288F389E02D80818F7D80830895EF925C
:10036000FF920F931F93CF93DF93EC0181E0888F6F
:100370009B8D8C8D98131AC0E889F989808185FF3F
:1003800015C09FB7F894EE89FF896083E889F989E1
:1003900080818370806480839FBF81E090E0DF91E3
:1003A000CF911F910F91FF90EF900895F62E0B8D36
:1003B00010E00F5F1F4F0F731127E02E8C8D8E11F1
:1003C0000CC00FB607FCFACFE889F989808185FF58
:1003D000F5CFCE010E948D01F1CFEB8DEC0FFD2FFB
:1003E000F11DE35AFF4FF0829FB7F8940B8FEA8913
:1003F000FB8980818062CFCFCF93DF93EC01888D22
:100400008823B9F0AA89BB89E889F9898C9185FD8F
:1004100003C0808186FD0DC00FB607FCF7CF8C911D
:1004200085FFF2CF808185FFEDCFCE010E948D0147
:10043000E9CFDF91CF910895833081F028F48130A6
:1004400099F08230A9F008958730A9F08830C9F07A
:100450008430B1F4809180008F7D03C08091800052
:100460008F7780938000089584B58F7784BD089539
:1004700084B58F7DFBCF8091B0008F778093B000E3
:1004800008958091B0008F7DF9CFCF93DF93E1EB9A
:10049000F0E08491EDE9F0E0D491E9E8F0E0C49176
:1004A000CC23A1F081110E941C02EC2FF0E0EE0F92
:1004B000FF1FE458FF4FA591B491EC91ED2381E02B
:1004C00090E009F480E0DF91CF91089580E090E022
:1004D000FACF1F93CF93DF93282F30E0F901E25535
:1004E000FF4F8491F901E656FF4FD491F901EA5785
:1004F000FF4FC491CC23A9F0162F81110E941C023A
:10050000EC2FF0E0EE0FFF1FE859FF4FA591B491DB
:100510008FB7F894EC91111108C0D095DE23DC93CD
:100520008FBFDF91CF911F910895DE2BF8CF3FB79A
:10053000F89480914A0290914B02A0914C02B091A4
:100540004D0226B5A89B05C02F3F19F00196A11DAD
:10055000B11D3FBFBA2FA92F982F8827BC01CD010D
:10056000620F711D811D911D42E0660F771F881F6C
:10057000991F4A95D1F70895AF92BF92DF92EF92FB
:10058000FF920F931F93CF93DF93D82E8091380360
:1005900090913903A0913A03B0913B03892B8A2BA8
:1005A0008B2BD9F00E949702009194021091950232
:1005B0002091960230919702601B710B820B930B76
:1005C000009138031091390320913A0330913B0395
:1005D0006017710782079307C8F20E949702609321
:1005E0009402709395028093960290939702E09103
:1005F0004003F0914103309759F040913C035091F2
:100600003D0360913E0370913F038D2D0995D82ED7
:10061000C0919202D091930282E8E82E82E0F82EF7
:100620008701209749F182E00239180729F18D8569
:100630008823F1F0E881F981A284B3840680F781F0
:10064000E02DCE010995BC01CE01F5010995F80117
:10065000918380838091360390913703843691058E
:1006600008F41C860C80DD81C02D0E5F1F4FD9CF92
:10067000F80111821082EECFC0919202D0919302C4
:1006800008E010E02097A9F08D85882361F04E8561
:100690005F856A817B81E881F9810280F381E02DA9
:1006A0002D2DCE0109950C80DD81C02D0150110941
:1006B00049F7C0919202D09193022097C9F0F2E9D4
:1006C000EF16F2E0FF06A1F08D85882351F0F701C7
:1006D00060817181E881F9810484F585E02DCE0186
:1006E00009950C80DD81C02DF2E0EF0EF11CE5CF05
:1006F00080918002909181029C012F5F3F4F309347
:1007000081022093800249970CF44AC08FB7F89475
:10071000209178023091790240917A0250917B02C7
:100720008FBF80917C0290917D02A0917E02B0915A
:100730007F02281B390B4A0B5B0B21F421E030E0D0
:1007400040E050E0E0918002F091810288EE93E079
:10075000E89FB001E99F700DF89F700D1124072EDE
:10076000000C880B990B0E94950E30933703209351
:10077000360310928102109280022FB7F894809174
:10078000780290917902A0917A02B0917B022FBFFA
:1007900080937C0290937D02A0937E02B0937F02AF
:1007A000DF91CF911F910F91FF90EF90DF90BF905D
:1007B000AF9008958F929F92AF92BF92CF92DF92A7
:1007C000EF92FF926B017C010E9497024B015C014A
:1007D000C114D104E104F104B9F00E949702681930
:1007E00079098A099B09683E73408105910580F368
:1007F00021E0C21AD108E108F10888EE880E83E0F2
:10080000981EA11CB11CE4CFFF90EF90DF90CF9019
:10081000BF90AF909F908F9008950895AF92BF9230
:10082000CF92DF92EF92FF920F931F93CF93DF93BC
:1008300000D01F92CDB7DEB75A0119821A821B82EF
:10084000882361F18B01E1E0F0E0E82EF12CD80182
:100850002D918D012223F1F06F01B1E0CB1AD10867
:10086000D501AC0DBD1D4C914423A1F030E02F5FAC
:100870003F4FD7010E94B70EA42FB0E011969B0105
:10088000AC010E94820EA1E0B0E0AC0FBD1FAC0D28
:10089000BD1D8C933196E430F105C9F669817A81EA
:1008A0008B810F900F900F90DF91CF911F910F913F
:1008B000FF90EF90DF90CF90BF90AF90089581E0D0
:1008C00090E008950F931F93CF93DF9320914702F9
:1008D0002F5F322F37703093470220FF2BC020E864
:1008E00031FD2064347009F02062205FFC01EC01CE
:1008F000239600E011E06785662329F070E0C801C7
:100900000E94D20E6F5F6187822F869F080E80E063
:10091000811D1124811110C01682662311F06150CF
:1009200061873196EC17FD0731F7DF91CF911F9169
:100930000F91089520E0D4CF81508683EECF4F925F
:100940005F927F928F929F92AF92BF92CF92DF92EF
:10095000EF92FF920F931F93CF93DF932C01EB0144
:100960000E949702F20126893789621B730B6A3055
:100970007105B0F3F8948A819B81181619060CF062
:10098000CDC1E881F9816BB1862E689482F83BB1C4
:100990003B7F3BB9DA848F812D2D281B822F2F833B
:1009A0004C85042E000C550BAA81BB817889FF84ED
:1009B000E9887F5FF394E3949E819884B984AB8443
:1009C0001181C12C6C2D0C2D2C2D21811127889487
:1009D0002111280F08F42FEF8195889470FD120FD4
:1009E0001795889471FD120F1795889472FD120F58
:1009F0001795889473FD120F1795889474FD120F44
:100A00001795889475FD120F1795889476FD120F2F
:100A10001795889477FD120F17958894622F71119E
:100A2000612F8D0D162F002C8BB800C017FF3BB91E
:100A300020816627889400C000C0002C3BB921119A
:100A4000290F00C0002C8BB800C016FF3BB908F47A
:100A50002FEF9195889400C000C0002C3BB9F0FCAA
:100A6000620F00C0002C8BB800C015FF3BB9679522
:100A70008894F1FC620F00C000C0002C3BB9679560
:100A8000889400C0002C8BB800C014FF3BB9F2FC66
:100A9000620F6795889400C000C0002C3BB9F3FC3E
:100AA000620F00C0002C8BB800C013FF3BB96795E4
:100AB0008894F4FC620F00C000C0002C3BB967951D
:100AC000889400C0002C8BB800C012FF3BB9F5FC25
:100AD000620F6795889400C000C0002C3BB9F6FCFB
:100AE000620F00C0002C8BB800C011FF3BB96795A6
:100AF0008894F7FC620F00C000C0002C3BB96795DA
:100B0000889400C0002C8BB800C010FF3BB9122F96
:100B1000F110162F9B0D00C000C0002C3BB900C087
:100B200000C0002C8BB800C017FF3BB9228166279C
:100B3000889400C000C0002C3BB92111290D00C0D1
:100B4000002C8BB800C016FF3BB908F42FEFE40F60
:100B5000F51F00C000C0002C3BB9E0FC620F00C0D4
:100B6000002C8BB800C015FF3BB967958894E1FC59
:100B7000620F00C000C0002C3BB96795889400C08C
:100B8000002C8BB800C014FF3BB9E2FC620F6795E4
:100B9000889400C000C0002C3BB9E3FC620F00C089
:100BA000002C8BB800C013FF3BB967958894E4FC18
:100BB000620F00C000C0002C3BB96795889400C04C
:100BC000002C8BB800C012FF3BB9E5FC620F6795A3
:100BD000889400C000C0002C3BB9E6FC620F00C046
:100BE000002C8BB800C011FF3BB967958894E7FCD7
:100BF000620F00C000C0002C3BB96795889400C00C
:100C0000002C8BB800C010FF3BB9122FE110162F3B
:100C1000919400C000C0002C3BB99A0C00C000C0E9
:100C20008BB800C017FF3BB921816627889400C0AC
:100C300000C0002C3BB92111280F00C0002C8BB83C
:100C400000C016FF3BB908F42FEF8195889400C0CF
:100C500000C0002C3BB970FD620F00C0002C8BB8A7
:100C600000C015FF3BB96795889471FD620F00C005
:100C700000C0002C3BB96795889400C0002C8BB84D
:100C800000C014FF3BB972FD620F6795889400C0E5
:100C900000C0002C3BB973FD620F00C0002C8BB864
:100CA00000C013FF3BB96795889474FD620F00C0C4
:100CB00000C0002C3BB96795889400C0002C8BB80D
:100CC00000C012FF3BB975FD620F6795889400C0A4
:100CD00000C0002C3BB976FD620F00C0002C8BB821
:100CE00000C011FF3BB96795889477FD620F00C083
:100CF00000C0002C3BB96795889400C0002C8BB8CD
:100D000000C010FF3BB9122F7111162F8D0D00C0BE
:100D100000C0002C3BB9119709F086CEEA81FB8117
:100D20002EE130E0DF010E94EC0E30E020E0A9016E
:100D3000AAE9EA9F0E0E411DFA9F400D511D112494
:100D40004F0F511DDC01CB01840F951FA11DB11D5B
:100D5000893E43E09407A105B10508F434C0885EDC
:100D60009340A109B10942E0B695A795979587955B
:100D70004A95D1F747E0849F080E211D949F200DCE
:100D8000311D1124290F311D6091460270E0860F3C
:100D9000971F820F931F40917802509179026091C2
:100DA0007A0270917B02292F3327420F531F611D56
:100DB000711D409378025093790260937A02709388
:100DC0007B028093460278940E949702F201778B0F
:100DD000668BDF91CF911F910F91FF90EF90DF9085
:100DE000CF90BF90AF909F908F907F905F904F90EB
:100DF0000895529A08956F927F928F92CF92DF92C8
:100E0000EF92FF920F931F93CF93DF93CDB7DEB78F
:100E100062970FB6F894DEBF0FBECDBF8C016B0199
:100E20007A01822FA801475F5F4FB8016A5F7F4F49
:100E30000E940E043B01882ED8011C962C91C701FC
:100E4000F7FE04C0882799278E199F09DA82C98284
:100E50009C838B839E838D83688A798A8A8A2130DA
:100E600049F5CE0101960E94620483E08D871F86BA
:100E70001E86F7FE02C08DEF8D87D801ED91FC91A3
:100E80000088F189E02DBE016F5F7F4FC801099591
:100E900062960FB6F894DEBF0FBECDBFDF91CF9143
:100EA0001F910F91FF90EF90DF90CF908F907F90E8
:100EB0006F9008951C861B861A86198618861F82D5
:100EC000D4CFCF92DF92EF92FF920F931F93CF93E5
:100ED000DF93CDB7DEB762970FB6F894DEBF0FBED3
:100EE000CDBF8C016B017A01822FA801475F5F4F54
:100EF000B8016A5F7F4F0E940E049B01482FD80102
:100F00001C968C91DA82C982FC82EB82FE82ED8291
:100F1000288B398B4A8B813009F5CE0101960E94CE
:100F200062041D861F861E86D801ED91FC91008803
:100F3000F189E02DBE016F5F7F4FC8010995629670
:100F40000FB6F894DEBF0FBECDBFDF91CF911F91DA
:100F50000F91FF90EF90DF90CF9008951C861B8635
:100F60001A86198618861F82DCCF089590E080E0EB
:100F70000895FC0164870895FC01848590E008953C
:100F8000FC01868597850895FC0101900020E9F712
:100F90003197AF01481B590BBC0188E992E00C94D2
:100FA0000F01CF93DF930E94C407EC0181E491E02D
:100FB0000E94C4078C0F9D1FDF91CF910895CF929F
:100FC000DF92EF92FF92CF93DF93EB016C01990FC9
:100FD000EE08FF08CE010E948C00C701B6010E94F6
:100FE000DA030E944502892B51F484E491E0DF91F9
:100FF000CF91FF90EF90DF90CF900C94D107219785
:1010000048F7DF91CF91FF90EF90DF90CF90089558
:101010008F929F92AF92BF92CF92DF92EF92FF9208
:101020000F931F93CF93DF93CDB7DEB7A1970FB682
:10103000F894DEBF0FBECDBF6C01990FEE08FF081C
:10104000F7FE47C06DE288E992E00E94AF018C0193
:1010500022273327A9012C193D094E095F0919A23E
:10106000CE0181967C019AE0892E912CA12CB12C85
:10107000CA01B901A50194010E94950E605DF701B6
:1010800062937F01211531054105510589F790E0F3
:1010900080E0309719F0CF010E94C407080F191F94
:1010A00081E491E00E94C407800F911FA1960FB6C2
:1010B000F894DEBF0FBECDBFDF91CF911F910F918E
:1010C000FF90EF90DF90CF90BF90AF909F908F9068
:1010D0000895A701960119A28E010F5D1F4F8AE0A6
:1010E000C82ED12CE12CF12CCA01B901A70196011F
:1010F0000E94950E605DF80162938F012115310504
:101100004105510589F7309729F0CF010E94C407A6
:101110008C01C6CF10E000E0C3CF8F929F92AF92B8
:10112000BF92CF92DF92EF92FF92CF93DF93EC01C9
:101130008091690358E5C52E52E0D52EC81AD10812
:1011400087FDD394CC0CDD1CCC0CDD1C0D2C000CCD
:10115000EE08FF088091680378E8872E912C881AA2
:10116000910887FD9394880C991C880C991C092C74
:10117000000CAA08BB08809167038F3F09F44CC09C
:1011800090E0FC01EE0FFF1FE80FF91FEE5BFC4F34
:101190008181928133E0880F991F3A95E1F7B0E0A1
:1011A000A0E044E0B595A795979587954A95D1F726
:1011B00002969C012F5F3F4F032E000C440B550BF2
:1011C000281939094A095B09A4EBB0E00E94820E94
:1011D000A7019601281939094A095B090E94630E83
:1011E0004901790187E691E00E94C407C4010E9489
:1011F00008084E01DD0FAA08BB0885EBE816F104CC
:1012000074F4C7010E948C00C501B4010E94DA0386
:101210008FEFE81AF80AF1CF90E080E0CACFDF91B3
:10122000CF91FF90EF90DF90CF90BF90AF909F90C5
:101230008F9008950E94070F1F920F920FB60F9282
:1012400011242F933F934F935F936F937F938F93CB
:101250009F93AF93BF93EF93FF9388E992E00E942F
:101260008D01FF91EF91BF91AF919F918F917F91F0
:101270006F915F914F913F912F910F900FBE0F9003
:101280001F9018951F920F920FB60F9211242F9353
:101290008F939F93EF93FF93E091A802F091A9029F
:1012A0008081E091AE02F091AF0282FD1BC090817F
:1012B0008091B1028F5F8F732091B202821741F04B
:1012C000E091B102F0E0E856FD4F958F8093B102B6
:1012D000FF91EF919F918F912F910F900FBE0F90E3
:1012E0001F9018958081F4CF1F920F920FB60F9226
:1012F00011242F933F938F939F93AF93BF9380912C
:10130000780290917902A0917A02B0917B0230919B
:10131000490223E0230F2D3758F50196A11DB11D79
:10132000209349028093780290937902A0937A02E5
:10133000B0937B0280914A0290914B02A0914C02A3
:10134000B0914D020196A11DB11D80934A02909368
:101350004B02A0934C02B0934D02BF91AF919F916D
:101360008F913F912F910F900FBE0F901F90189566
:1013700026E8230F0296A11DB11DD2CF1F920F9216
:101380000FB60F9211242F933F934F935F936F9358
:101390007F938F939F93AF93BF93EF93FF93E091CE
:1013A0000201F09103010995FF91EF91BF91AF9177
:1013B0009F918F917F916F915F914F913F912F916D
:1013C0000F900FBE0F901F9018951F920F920FB69F
:1013D0000F9211242F933F934F935F936F937F93BB
:1013E0008F939F93AF93BF93EF93FF93E09100018F
:1013F000F09101010995FF91EF91BF91AF919F91FC
:101400008F917F916F915F914F913F912F910F90AD
:101410000FBE0F901F9018951F920F920FB60F924C
:1014200011242F933F934F935F936F937F938F93E9
:101430009F93AF93BF93CF93DF93EF93FF938091ED
:101440004802C0916603D0E087FF24C01092850057
:1014500010928400809148028F5F809348028091AF
:101460004802082E000C990B8C179D0724F48091DC
:1014700048028C30C4F180918400909185000496DC
:1014800080349C4908F47AC0809184009091850052
:10149000049676C080914802082E000C990B8C1798
:1014A0009D07C4F6E09148028E2FEE0F990BFC01C8
:1014B000EE0FFF1FE80FF91FEE5BFC4F808186FFE8
:1014C000C9CFE09148028E2FEE0F990BFC01EE0F71
:1014D000FF1FE80FF91FEE5BFC4F808160E08F7308
:1014E0000E946902B7CF2091840030918500E0917D
:1014F00048028E2FEE0F990BFC01EE0FFF1FE80F35
:10150000F91FEE5BFC4F81819281820F931F9093B4
:10151000890080938800E09148028E2FEE0F990B8E
:10152000FC01EE0FFF1FE80FF91FEE5BFC4F8081FF
:1015300086FF11C0E09148028E2FEE0F990BFC013F
:10154000EE0FFF1FE80FF91FEE5BFC4F808161E09B
:101550008F730E946902FF91EF91DF91CF91BF914C
:10156000AF919F918F917F916F915F914F913F913B
:101570002F910F900FBE0F901F90189580E49CE95B
:1015800090938900809388008FEF80934802E3CF87
:1015900010929B0210929A0288EE93E0A0E0B0E0D5
:1015A00080939C0290939D02A0939E02B0939F0211
:1015B00083E391E0909399028093980285EC90E008
:1015C0009093A5028093A40284EC90E09093A702EC
:1015D0008093A60280EC90E09093A9028093A802E9
:1015E00081EC90E09093AB028093AA0282EC90E0B1
:1015F0009093AD028093AC0286EC90E09093AF02A2
:101600008093AE021092B1021092B2021092B30215
:101610001092B4029FEF909335031092370310920B
:10162000360310924103109240034FEF5FEFBA016F
:1016300040933C0350933D0360933E0370933F03FC
:10164000109238031092390310923A0310923B0320
:10165000809166038C3098F491E0980F9093660324
:101660008093670390E0FC01EE0FFF1FE80FF91F66
:10167000EE5BFC4F88EB9BE092838183089590930F
:1016800067030895789484B5826084BD84B58160D1
:1016900084BD85B5826085BD85B5816085BD80913D
:1016A0006E00816080936E001092810080918100B5
:1016B00082608093810080918100816080938100AD
:1016C000809180008160809380008091B10084606F
:1016D0008093B1008091B00081608093B0008091D0
:1016E0007A00846080937A0080917A00826080938F
:1016F0007A0080917A00816080937A0080917A00EC
:10170000806880937A001092C100E091A802F09165
:10171000A90282E08083E091A402F091A5021082E8
:10172000E091A602F091A7028FEC80831092B002A4
:10173000E091AC02F091AD0286E08083E091AA02D4
:10174000F091AB02808180618083E091AA02F091E8
:10175000AB02808188608083E091AA02F091AB02A5
:10176000808180688083E091AA02F091AB02808141
:101770008F7D80838AE891E00E94D107EDE9F0E057
:101780002491E9E8F0E084918823C1F090E0880F8B
:10179000991FFC01EE58FF4FC591D491FC01E85907
:1017A000FF4FA591B4919FB7F8943881822F80950F
:1017B00083238883EC91E22BEC939FBF8091670396
:1017C0008C3008F068C0EEE9F0E02491EAE8F0E03F
:1017D0008491882399F090E0880F991FFC01EE58BE
:1017E000FF4FA591B491FC01E859FF4F8591949169
:1017F0008FB7F894EC91E22BEC938FBF8091670345
:10180000282F30E0F901EE0FFF1FE20FF31FEE5B10
:10181000FC4F9081907C94609083109268031092AA
:1018200069032CE0622F0E94C60E829FB001112432
:1018300030E020E0AB01420F531FFA01EE0FFF1F13
:10184000E40FF51FEE5BFC4F908196FD16C02F5FF5
:101850003F4F2C30310571F781110FC0109280007D
:1018600082E0809381001092850010928400B19AEA
:1018700080916F00826080936F00E09167038E2FEC
:1018800090E0FC01EE0FFF1FE80FF91FEE5BFC4F2D
:1018900080818064808384EB90E00E948C00809142
:1018A0006802811157C010925302109252028FEFBA
:1018B0008093560280935702809358028093590276
:1018C00080935A0280935B0281E080935C02809354
:1018D0005D0210925F0210925E0280E797E19093A2
:1018E00061028093600283E090E0909363028093B2
:1018F00062021092650210926402109255021092D8
:1019000054028091920290919302892B31F480E5E8
:1019100092E09093930280939202E0914E02F091B4
:101920004F02309721F080E592E09583848380E533
:1019300092E090934F0280934E02109267021092B1
:1019400066028DE191E0909351028093500281E014
:1019500080936802529A80E792E0909353028093BA
:10196000520281E090E090935F0280935E0280914A
:10197000380390913903A0913A03B0913B03843C22
:1019800029E09207A105B10520F484EC99E0A0E0DC
:10199000B0E08093380390933903A0933A03B09357
:1019A0003B0310927002109271028FEF80937202CB
:1019B000809135030E94BC0288E091E0909303017E
:1019C0008093020180916900837F88608093690021
:1019D000E99A8BEC91E00E94C4070E9445020E94A4
:1019E000080897E0E92E00E010E0FF24FA948091C7
:1019F00077028823B1F18FB7F894809078029090A5
:101A00007902A0907A02B0907B028FBF809173021E
:101A100090917402A0917502B0917602A501940193
:101A2000281B390B4A0B5B0BDA01C901883E934036
:101A3000A105B105A0F08AED91E00E94D107809147
:101A400004016E2D0E94C60E9F5F90930401809248
:101A5000730290927402A0927502B0927602109274
:101A60007702809104018823B9F1F09270021092FC
:101A7000710210927202809135030E94BC020E9492
:101A800045020197F9F4E0910401E150E730D0F408
:101A9000F0E0E35BF24F0C94E60E540D7E0DA10DC9
:101AA000D40DE90D180E2D0E8CEF91E00E94D10798
:101AB00064EB70E084E190E00E94DF0784E190E055
:101AC0000E948D081092700210927102F0927202C0
:101AD000809135030E94BC026AE070E080E090E0F3
:101AE0000E94DA030115110509F481CF0E947901E2
:101AF000882309F47CCF0E94000079CF86E092E031
:101B00000E94D10760ED77E080E090E00E94DA0368
:101B10008AEA90E00E948C0060ED77E080E090E03F
:101B20000E94DA036AEA70E088E290E00E94DF0730
:101B300064EF71E080E090E00E94DA0388E290E0D8
:101B4000BFCF80E192E00E94D10760ED77E080E0B6
:101B500090E00E94DA0385E0C82ED12CC4EBD0E0DF
:101B6000CE010E948C006AE070E080E090E00E946C
:101B7000DA032197C43AD10599F768EC70E080E068
:101B800090E00E94DA0341E0C41AD10839F765EA0F
:101B900070E08EE190E00E94DF0760E971E080E094
:101BA00090E00E94DA0310C08AE192E00E94D1071F
:101BB00060ED77E080E090E00E94DA0364EB70E093
:101BC00084E190E00E94DF0784EB90E00E948C00AB
:101BD00079CF84E292E00E94D10760ED77E080E067
:101BE00090E00E94DA0364EB70E088E090E00E94ED
:101BF000DF0760ED77E080E090E00E94DA03C7E065
:101C0000D0E08BE490E00E948C0064E670E080E01D
:101C100090E00E94DA0388E290E00E948C0064E683
:101C200070E080E090E00E94DA03219751F7CCCF7A
:101C30008EE292E00E94D10760ED77E080E090E0D4
:101C40000E94DA0364EB70E082E390E00E94DF0719
:101C500060ED77E080E090E0A4CF88E392E00E941E
:101C6000D10760ED77E080E090E00E94DA03C4EBFA
:101C7000D0E0CE010E948C0068E270E080E090E04D
:101C80000E94DA032197CB33D10599F7C3E0D0E066
:101C90008CE390E00E948C0068EC70E080E090E0C3
:101CA0000E94DA0388E290E00E948C0060E273E018
:101CB00080E090E00E94DA03219751F768E270E03B
:101CC00084E190E0C3CF052E97FB1EF400940E94A0
:101CD0007A0E57FD07D00E94950E07FC03D04EF4F4
:101CE0000C947A0E50954095309521953F4F4F4F6B
:101CF0005F4F089590958095709561957F4F8F4FB8
:101D00009F4F08950E94B70EA59F900DB49F900D10
:101D1000A49F800D911D11240895B7FF0C94820E8D
:101D20000E94820E821B930B0895A1E21A2EAA1B19
:101D3000BB1BFD010DC0AA1FBB1FEE1FFF1FA2177B
:101D4000B307E407F50720F0A21BB30BE40BF50B78
:101D5000661F771F881F991F1A9469F76095709501
:101D6000809590959B01AC01BD01CF010895A29F84
:101D7000B001B39FC001A39F700D811D1124911D5F
:101D8000B29F700D811D1124911D0895991B79E05A
:101D900004C0991F961708F0961B881F7A95C9F7FB
:101DA0008095089597FB072E16F4009407D077FDD1
:101DB00009D00E94F30E07FC05D03EF49095819562
:101DC0009F4F0895709561957F4F0895EE0FFF1F07
:101DD0000590F491E02D09940E94B70EB7FF089585
:101DE000821B930B0895AA1BBB1B51E107C0AA1FBE
:101DF000BB1FA617B70710F0A61BB70B881F991FAC
:101E00005A95A9F780959095BC01CD01089581E080
:0C1E100090E0F8940C940C0FF894FFCFB5
:101E1C000D040D0401000000001A091A091A09C06A
:101E2C00075F04BC07B907B607000000006107FB99
:101E3C0006F906C0075F04BC07B9070C019F040034
:101E4C00000000AF010F013C01FC016D014B015F73
:101E5C00010D0A005377697463682070726573739F
:101E6C006564212053746F7070696E67206D6F7696
:101E7C00656D656E742E004D6F76696E67206261BC
:101E8C00636B20746F203138302066726F6D207058
:101E9C006F736974696F6E3A20005573656C657366
:101EAC007320426F782076312E32202D2D3E206803
:101EBC00747470733A2F2F6769746875622E636F30
:101ECC006D2F4B756E7374477261766572656E2FEC
:101EDC007573656C657373626F780053776974639F
:101EEC00682073746174653A200048616E646C6597
:101EFC0020737769746368207072657373207769D7
:101F0C007468206465626F756E6365004163746903
:101F1C006F6E20313A00416374696F6E20323A0063
:101F2C00416374696F6E20333A00416374696F6E5C
:101F3C0020343A00416374696F6E20353A00416376
:101F4C0074696F6E20363A00416374696F6E203786
:021F5C003A0049
:00000001FF
