:100000000C9462000C940C0A0C94E5090C948A0080
:100010000C948A000C948A000C948A000C948A0038
:100020000C948A000C948A000C948A000C94330A75
:100030000C948A000C948A000C948A000C948A0018
:100040000C949B090C948A000C9469090C94430944
:100050000C948A000C948A000C948A000C948A00F8
:100060000C948A000C948A000000000025002800EF
:100070002B0000000000240027002A0000000000E0
:1000800023002600290004040404040404040202DA
:100090000202020203030303030301020408102007
:1000A0004080010204081020010204081020000012
:1000B0000008000201000003040700000000000027
:1000C0000000EF0A11241FBECFEFD8E0DEBFCDBF86
:1000D00012E0A0E0B1E0E8EDFEE102C005900D9273
:1000E000A234B107D9F723E0A2E4B2E001C01D9227
:1000F000AB36B207E1F710E0C2E6D0E004C02197CA
:10010000FE010E94440FC136D107C9F70E94690B56
:100110000C946A0F0C940000CF92DF92EF92FF9242
:10012000DC01A03282E0B807D4F5A53BB10514F09C
:10013000A4EBB0E04091690328E830E0241B3109CA
:1001400047FD3395220F331F220F331F6901330FF1
:10015000EE08FF0840916A0328E532E0241B3109CC
:1001600047FD3395220F331F220F331F032E000C40
:10017000440B550B2C193D094E095F09B7FF02C00E
:10018000B0E0A0E00E94EB0E24EB30E040E050E055
:100190000E94C10EC20ED31EE41EF51ED601E091D0
:1001A0006803EC3080F52091690388E890E0821BB9
:1001B000910927FD9395880F991F880F991FA817FC
:1001C000B90784F020916A0388E592E0821B9109C7
:1001D00027FD9395880F991F880F991FA817B907B6
:1001E0000CF4CD010297880F991F4FB7F8942E2F6A
:1001F00030E0F901EE0FFF1FE20FF31FED5BFC4F44
:10020000928381834FBFFF90EF90DF90CF9008954E
:1002100081E080937802089580E991E00895AF929B
:10022000BF92CF92DF92EF92FF920F931F93CF93E3
:10023000DF936C017B018B01040F151FEB015E0145
:10024000AE18BF08C017D10759F06991D601ED91DA
:10025000FC910190F081E02DC6010995892B79F779
:10026000C501DF91CF911F910F91FF90EF90DF902B
:10027000CF90BF90AF900895FC01538D448D252FF2
:1002800030E0842F90E0821B930B541710F0CF9630
:10029000089501970895FC01918D828D981761F062
:1002A000A28DAE0FBF2FB11D5D968C91928D9F5F79
:1002B0009F73928F90E008958FEF9FEF0895FC0158
:1002C000918D828D981731F0828DE80FF11D858D0B
:1002D00090E008958FEF9FEF0895FC01918D228D9E
:1002E000892F90E0805C9F4F821B91098F73992723
:1002F000089589E992E00E946D0121E0892B09F4BB
:1003000020E0822F089580E090E0892B29F00E9460
:10031000790181110C9400000895FC01A48DA80FAF
:10032000B92FB11DA35ABF4F2C91848D90E0019637
:100330008F739927848FA689B7892C93A089B18957
:100340008C91837080648C93938D848D981306C0F8
:100350000288F389E02D80818F7D80830895EF925C
:10036000FF920F931F93CF93DF93EC0181E0888F6F
:100370009B8D8C8D98131AC0E889F989808185FF3F
:1003800015C09FB7F894EE89FF896083E889F989E1
:1003900080818370806480839FBF81E090E0DF91E3
:1003A000CF911F910F91FF90EF900895F62E0B8D36
:1003B00010E00F5F1F4F0F731127E02E8C8D8E11F1
:1003C0000CC00FB607FCFACFE889F989808185FF58
:1003D000F5CFCE010E948D01F1CFEB8DEC0FFD2FFB
:1003E000F11DE35AFF4FF0829FB7F8940B8FEA8913
:1003F000FB8980818062CFCFCF93DF93EC01888D22
:100400008823B9F0AA89BB89E889F9898C9185FD8F
:1004100003C0808186FD0DC00FB607FCF7CF8C911D
:1004200085FFF2CF808185FFEDCFCE010E948D0147
:10043000E9CFDF91CF910895833081F028F48130A6
:1004400099F08230A9F008958730A9F08830C9F07A
:100450008430B1F4809180008F7D03C08091800052
:100460008F7780938000089584B58F7784BD089539
:1004700084B58F7DFBCF8091B0008F778093B000E3
:1004800008958091B0008F7DF9CFCF93DF93E1EB9A
:10049000F0E08491EDE9F0E0D491E9E8F0E0C49176
:1004A000CC23A1F081110E941C02EC2FF0E0EE0F92
:1004B000FF1FE458FF4FA591B491EC91ED2381E02B
:1004C00090E009F480E0DF91CF91089580E090E022
:1004D000FACF1F93CF93DF93282F30E0F901E25535
:1004E000FF4F8491F901E656FF4FD491F901EA5785
:1004F000FF4FC491CC23A9F0162F81110E941C023A
:10050000EC2FF0E0EE0FFF1FE859FF4FA591B491DB
:100510008FB7F894EC91111108C0D095DE23DC93CD
:100520008FBFDF91CF911F910895DE2BF8CF3FB79A
:10053000F89480914A0290914B02A0914C02B091A4
:100540004D0226B5A89B05C02F3F19F00196A11DAD
:10055000B11D3FBFBA2FA92F982F8827BC01CD010D
:10056000620F711D811D911D42E0660F771F881F6C
:10057000991F4A95D1F70895AF92BF92DF92EF92FB
:10058000FF920F931F93CF93DF93D82E809139035F
:1005900090913A03A0913B03B0913C03892B8A2BA5
:1005A0008B2BD9F00E949702009195021091960230
:1005B0002091970230919802601B710B820B930B74
:1005C0000091390310913A0320913B0330913C0391
:1005D0006017710782079307C8F20E949702609321
:1005E0009502709396028093970290939802E091FF
:1005F0004103F0914203309759F040913D035091EF
:100600003E0360913F03709140038D2D0995D82ED4
:10061000C0919302D091940283E8E82E82E0F82EF4
:100620008701209749F182E00339180729F18D8568
:100630008823F1F0E881F981A284B3840680F781F0
:10064000E02DCE010995BC01CE01F5010995F80117
:10065000918380838091370390913803843691058C
:1006600008F41C860C80DD81C02D0E5F1F4FD9CF92
:10067000F80111821082EECFC0919302D0919402C2
:1006800008E010E02097A9F08D85882361F04E8561
:100690005F856A817B81E881F9810280F381E02DA9
:1006A0002D2DCE0109950C80DD81C02D0150110941
:1006B00049F7C0919302D09194022097C9F0F3E9D1
:1006C000EF16F2E0FF06A1F08D85882351F0F701C7
:1006D00060817181E881F9810484F585E02DCE0186
:1006E00009950C80DD81C02DF2E0EF0EF11CE5CF05
:1006F00080918102909182029C012F5F3F4F309345
:1007000082022093810249970CF44AC08FB7F89473
:100710002091790230917A0240917B0250917C02C3
:100720008FBF80917D0290917E02A0917F02B09157
:100730008002281B390B4A0B5B0B21F421E030E0CF
:1007400040E050E0E0918102F091820288EE93E077
:10075000E89FB001E99F700DF89F700D1124072EDE
:10076000000C880B990B0E94F30E309338032093F2
:10077000370310928202109281022FB7F894809171
:10078000790290917A02A0917B02B0917C022FBFF6
:1007900080937D0290937E02A0937F02B0938002AB
:1007A000DF91CF911F910F91FF90EF90DF90BF905D
:1007B000AF9008958F929F92AF92BF92CF92DF92A7
:1007C000EF92FF926B017C010E9497024B015C014A
:1007D000C114D104E104F104B9F00E949702681930
:1007E00079098A099B09683E73408105910580F368
:1007F00021E0C21AD108E108F10888EE880E83E0F2
:10080000981EA11CB11CE4CFFF90EF90DF90CF9019
:10081000BF90AF909F908F9008950895AF92BF9230
:10082000CF92DF92EF92FF920F931F93CF93DF93BC
:1008300000D01F92CDB7DEB75A0119821A821B82EF
:10084000882361F18B01E1E0F0E0E82EF12CD80182
:100850002D918D012223F1F06F01B1E0CB1AD10867
:10086000D501AC0DBD1D4C914423A1F030E02F5FAC
:100870003F4FD7010E94150FA42FB0E011969B01A6
:10088000AC010E94E00EA1E0B0E0AC0FBD1FAC0DCA
:10089000BD1D8C933196E430F105C9F669817A81EA
:1008A0008B810F900F900F90DF91CF911F910F913F
:1008B000FF90EF90DF90CF90BF90AF90089581E0D0
:1008C00090E008950F931F93CF93DF9320914702F9
:1008D0002F5F322F37703093470220FF2BC020E864
:1008E00031FD2064347009F02062205FFC01EC01CE
:1008F000239600E011E06785662329F070E0C801C7
:100900000E94300F6F5F6187822F869F080E80E004
:10091000811D1124811110C01682662311F06150CF
:1009200061873196EC17FD0731F7DF91CF911F9169
:100930000F91089520E0D4CF81508683EECF4F925F
:100940005F927F928F929F92AF92BF92CF92DF92EF
:10095000EF92FF920F931F93CF93DF932C01EB0144
:100960000E949702F20126893789621B730B6A3055
:100970007105B0F3F8948A819B81181619060CF062
:10098000CDC1E881F9816BB1862E689482F83BB1C4
:100990003B7F3BB9DA848F812D2D281B822F2F833B
:1009A0004C85042E000C550BAA81BB817889FF84ED
:1009B000E9887F5FF394E3949E819884B984AB8443
:1009C0001181C12C6C2D0C2D2C2D21811127889487
:1009D0002111280F08F42FEF8195889470FD120FD4
:1009E0001795889471FD120F1795889472FD120F58
:1009F0001795889473FD120F1795889474FD120F44
:100A00001795889475FD120F1795889476FD120F2F
:100A10001795889477FD120F17958894622F71119E
:100A2000612F8D0D162F002C8BB800C017FF3BB91E
:100A300020816627889400C000C0002C3BB921119A
:100A4000290F00C0002C8BB800C016FF3BB908F47A
:100A50002FEF9195889400C000C0002C3BB9F0FCAA
:100A6000620F00C0002C8BB800C015FF3BB9679522
:100A70008894F1FC620F00C000C0002C3BB9679560
:100A8000889400C0002C8BB800C014FF3BB9F2FC66
:100A9000620F6795889400C000C0002C3BB9F3FC3E
:100AA000620F00C0002C8BB800C013FF3BB96795E4
:100AB0008894F4FC620F00C000C0002C3BB967951D
:100AC000889400C0002C8BB800C012FF3BB9F5FC25
:100AD000620F6795889400C000C0002C3BB9F6FCFB
:100AE000620F00C0002C8BB800C011FF3BB96795A6
:100AF0008894F7FC620F00C000C0002C3BB96795DA
:100B0000889400C0002C8BB800C010FF3BB9122F96
:100B1000F110162F9B0D00C000C0002C3BB900C087
:100B200000C0002C8BB800C017FF3BB9228166279C
:100B3000889400C000C0002C3BB92111290D00C0D1
:100B4000002C8BB800C016FF3BB908F42FEFE40F60
:100B5000F51F00C000C0002C3BB9E0FC620F00C0D4
:100B6000002C8BB800C015FF3BB967958894E1FC59
:100B7000620F00C000C0002C3BB96795889400C08C
:100B8000002C8BB800C014FF3BB9E2FC620F6795E4
:100B9000889400C000C0002C3BB9E3FC620F00C089
:100BA000002C8BB800C013FF3BB967958894E4FC18
:100BB000620F00C000C0002C3BB96795889400C04C
:100BC000002C8BB800C012FF3BB9E5FC620F6795A3
:100BD000889400C000C0002C3BB9E6FC620F00C046
:100BE000002C8BB800C011FF3BB967958894E7FCD7
:100BF000620F00C000C0002C3BB96795889400C00C
:100C0000002C8BB800C010FF3BB9122FE110162F3B
:100C1000919400C000C0002C3BB99A0C00C000C0E9
:100C20008BB800C017FF3BB921816627889400C0AC
:100C300000C0002C3BB92111280F00C0002C8BB83C
:100C400000C016FF3BB908F42FEF8195889400C0CF
:100C500000C0002C3BB970FD620F00C0002C8BB8A7
:100C600000C015FF3BB96795889471FD620F00C005
:100C700000C0002C3BB96795889400C0002C8BB84D
:100C800000C014FF3BB972FD620F6795889400C0E5
:100C900000C0002C3BB973FD620F00C0002C8BB864
:100CA00000C013FF3BB96795889474FD620F00C0C4
:100CB00000C0002C3BB96795889400C0002C8BB80D
:100CC00000C012FF3BB975FD620F6795889400C0A4
:100CD00000C0002C3BB976FD620F00C0002C8BB821
:100CE00000C011FF3BB96795889477FD620F00C083
:100CF00000C0002C3BB96795889400C0002C8BB8CD
:100D000000C010FF3BB9122F7111162F8D0D00C0BE
:100D100000C0002C3BB9119709F086CEEA81FB8117
:100D20002EE130E0DF010E944A0F30E020E0A9010F
:100D3000AAE9EA9F0E0E411DFA9F400D511D112494
:100D40004F0F511DDC01CB01840F951FA11DB11D5B
:100D5000893E43E09407A105B10508F434C0885EDC
:100D60009340A109B10942E0B695A795979587955B
:100D70004A95D1F747E0849F080E211D949F200DCE
:100D8000311D1124290F311D6091460270E0860F3C
:100D9000971F820F931F4091790250917A026091C0
:100DA0007B0270917C02292F3327420F531F611D54
:100DB000711D4093790250937A0260937B02709385
:100DC0007C028093460278940E949702F201778B0E
:100DD000668BDF91CF911F910F91FF90EF90DF9085
:100DE000CF90BF90AF909F908F907F905F904F90EB
:100DF0000895529A08956F927F928F92CF92DF92C8
:100E0000EF92FF920F931F93CF93DF93CDB7DEB78F
:100E100062970FB6F894DEBF0FBECDBF8C016B0199
:100E20007A01822FA801475F5F4FB8016A5F7F4F49
:100E30000E940E043B01882ED8011C962C91C701FC
:100E4000F7FE04C0882799278E199F09DA82C98284
:100E50009C838B839E838D83688A798A8A8A2130DA
:100E600049F5CE0101960E94620483E08D871F86BA
:100E70001E86F7FE02C08DEF8D87D801ED91FC91A3
:100E80000088F189E02DBE016F5F7F4FC801099591
:100E900062960FB6F894DEBF0FBECDBFDF91CF9143
:100EA0001F910F91FF90EF90DF90CF908F907F90E8
:100EB0006F9008951C861B861A86198618861F82D5
:100EC000D4CFCF92DF92EF92FF920F931F93CF93E5
:100ED000DF93CDB7DEB762970FB6F894DEBF0FBED3
:100EE000CDBF8C016B017A01822FA801475F5F4F54
:100EF000B8016A5F7F4F0E940E049B01482FD80102
:100F00001C968C91DA82C982FC82EB82FE82ED8291
:100F1000288B398B4A8B813009F5CE0101960E94CE
:100F200062041D861F861E86D801ED91FC91008803
:100F3000F189E02DBE016F5F7F4FC8010995629670
:100F40000FB6F894DEBF0FBECDBFDF91CF911F91DA
:100F50000F91FF90EF90DF90CF9008951C861B8635
:100F60001A86198618861F82DCCF08950FB6F8946A
:100F7000A895809160008861809360001092600065
:100F80000FBE089588E199E20FB6F894A895809372
:100F900060000FBE90936000089590E080E0089597
:100FA000FC0164870895FC01848590E00895FC01AC
:100FB000868597850895FC0101900020E9F7319717
:100FC000AF01481B590BBC0189E992E00C940F0159
:100FD000CF93DF930E94DB07EC0181E491E00E9454
:100FE000DB078C0F9D1FDF91CF910895CF92DF9289
:100FF000EF92FF92CF93DF936C01EB0181E080933E
:1010000070020E94C2070D2C000CEE08FF08CE01F2
:101010000E948C00C701B6010E94DA03A8950E94C5
:101020004502892B79F484E491E00E94E8070E944C
:10103000B60710927002DF91CF91FF90EF90DF9092
:10104000CF900895219718F7F2CF8F929F92AF9289
:10105000BF92CF92DF92EF92FF920F931F93CF93A5
:10106000DF93CDB7DEB7A1970FB6F894DEBF0FBE02
:10107000CDBF6C01990FEE08FF08F7FE47C06DE287
:1010800089E992E00E94AF018C0122273327A90150
:101090002C193D094E095F0919A2CE0181967C01E8
:1010A0009AE0892E912CA12CB12CCA01B901A5017D
:1010B00094010E94F30E605DF70162937F01211598
:1010C00031054105510589F790E080E0309719F02E
:1010D000CF010E94DB07080F191F81E491E00E94F5
:1010E000DB07800F911FA1960FB6F894DEBF0FBEED
:1010F000CDBFDF91CF911F910F91FF90EF90DF90C7
:10110000CF90BF90AF909F908F900895A7019601C8
:1011100019A28E010F5D1F4F8AE0C82ED12CE12C41
:10112000F12CCA01B901A70196010E94F30E605D7E
:10113000F80162938F01211531054105510589F7A9
:10114000309729F0CF010E94DB078C01C6CF10E059
:1011500000E0C3CF8F929F92AF92BF92CF92DF9267
:10116000EF92FF92CF93DF93EC0181E080937002C6
:101170000E94C20780916A0358E5C52E52E0D52E21
:10118000C81AD10887FDD394CC0CDD1CCC0CDD1C17
:101190000D2C000CEE08FF088091690378E8872E7B
:1011A000912C881A910887FD9394880C991C880CBF
:1011B000991C092C000CAA08BB08809168038F3F7A
:1011C00009F44DC090E0FC01EE0FFF1FE80FF91F7E
:1011D000ED5BFC4F8181928133E0880F991F3A9536
:1011E000E1F7B0E0A0E044E0B595A7959795879525
:1011F0004A95D1F702969C012F5F3F4F032E000CBA
:10120000440B550B281939094A095B09A4EBB0E0D6
:101210000E94E00EA7019601281939094A095B09C5
:101220000E94C10E4901790187E691E00E94DB0727
:10123000C4010E9425084E01DD0FAA08BB0885EBFA
:10124000E816F1047CF4C7010E948C00C501B401CA
:101250000E94DA03A8958FEFE81AF80AF0CF90E021
:1012600080E0C9CF0E94B60710927002DF91CF9143
:10127000FF90EF90DF90CF90BF90AF909F908F90B6
:1012800008950E94650F1F920F920FB60F921124BE
:101290002F933F934F935F936F937F938F939F937E
:1012A000AF93BF93EF93FF9389E992E00E948D0182
:1012B000FF91EF91BF91AF919F918F917F916F912E
:1012C0005F914F913F912F910F900FBE0F901F9004
:1012D00018951F920F920FB60F9211242F938F9390
:1012E0009F93EF93FF93E091A902F091AA0280816E
:1012F000E091AF02F091B00282FD1BC0908180911D
:10130000B2028F5F8F732091B302821741F0E09198
:10131000B202F0E0E756FD4F958F8093B202FF9145
:10132000EF919F918F912F910F900FBE0F901F9073
:1013300018958081F4CF1F920F920FB60F9211244F
:101340002F933F938F939F93AF93BF938091790295
:1013500090917A02A0917B02B0917C023091490277
:1013600023E0230F2D3758F50196A11DB11D2093C1
:1013700049028093790290937A02A0937B02B09302
:101380007C0280914A0290914B02A0914C02B09154
:101390004D020196A11DB11D80934A0290934B020C
:1013A000A0934C02B0934D02BF91AF919F918F914A
:1013B0003F912F910F900FBE0F901F90189526E828
:1013C000230F0296A11DB11DD2CF1F920F920FB60F
:1013D0000F9211242F933F934F935F936F937F93BB
:1013E0008F939F93AF93BF93EF93FF93E09102018D
:1013F000F09103010995FF91EF91BF91AF919F91FA
:101400008F917F916F915F914F913F912F910F90AD
:101410000FBE0F901F9018951F920F920FB60F924C
:1014200011242F933F934F935F936F937F938F93E9
:101430009F93AF93BF93EF93FF93E0910001F091DF
:1014400001010995FF91EF91BF91AF919F918F910C
:101450007F916F915F914F913F912F910F900FBEB0
:101460000F901F9018951F920F920FB60F92112494
:101470002F933F934F935F936F937F938F939F939C
:10148000AF93BF93CF93DF93EF93FF938091480285
:10149000C0916703D0E087FF24C0109285001092AE
:1014A0008400809148028F5F8093480280914802B7
:1014B000082E000C990B8C179D0724F4809148028C
:1014C0008C30C4F180918400909185000496803422
:1014D0009C4908F47AC0809184009091850004961C
:1014E00076C080914802082E000C990B8C179D073E
:1014F000C4F6E09148028E2FEE0F990BFC01EE0F1F
:10150000FF1FE80FF91FED5BFC4F808186FFC9CFFD
:10151000E09148028E2FEE0F990BFC01EE0FFF1F9A
:10152000E80FF91FED5BFC4F808160E08F730E9434
:101530006902B7CF2091840030918500E091480284
:101540008E2FEE0F990BFC01EE0FFF1FE80FF91F16
:10155000ED5BFC4F81819281820F931F90938900F4
:1015600080938800E09148028E2FEE0F990BFC01CA
:10157000EE0FFF1FE80FF91FED5BFC4F808186FF28
:1015800011C0E09148028E2FEE0F990BFC01EE0F77
:10159000FF1FE80FF91FED5BFC4F808161E08F7347
:1015A0000E946902FF91EF91DF91CF91BF91AF91BE
:1015B0009F918F917F916F915F914F913F912F916B
:1015C0000F900FBE0F901F90189580E49CE99093A8
:1015D0008900809388008FEF80934802E3CF1092B8
:1015E0009C0210929B0288EE93E0A0E0B0E0809312
:1015F0009D0290939E02A0939F02B093A00283E36A
:1016000091E090939A028093990285EC90E09093F8
:10161000A6028093A50284EC90E09093A8028093A8
:10162000A70280EC90E09093AA028093A90281EC3B
:1016300090E09093AC028093AB0282EC90E09093A8
:10164000AE028093AD0286EC90E09093B00280935E
:10165000AF021092B2021092B3021092B402109232
:10166000B5029FEF90933603109238031092370320
:1016700010924203109241034FEF5FEFBA01409383
:101680003D0350933E0360933F03709340031092D9
:10169000390310923A0310923B0310923C0380915D
:1016A00067038C3098F491E0980F909367038093D0
:1016B000680390E0FC01EE0FFF1FE80FF91FED5BE0
:1016C000FC4F88EB9BE0928381830895909368039D
:1016D0000895789484B5826084BD84B5816084BDAA
:1016E00085B5826085BD85B5816085BD80916E00C0
:1016F000816080936E0010928100809181008260F1
:10170000809381008091810081608093810080912D
:1017100080008160809380008091B100846080931C
:10172000B1008091B00081608093B00080917A0018
:10173000846080937A0080917A00826080937A003E
:1017400080917A00816080937A0080917A0080682D
:1017500080937A001092C100E091A902F091AA0250
:1017600082E08083E091A502F091A6021082E091D0
:10177000A702F091A8028FEC80831092B102E09151
:10178000AD02F091AE0286E08083E091AB02F09171
:10179000AC02808180618083E091AB02F091AC0269
:1017A000808188608083E091AB02F091AC028081FF
:1017B00080688083E091AB02F091AC0280818F7DE4
:1017C00080838AE891E00E94E807EDE9F0E0249147
:1017D000E9E8F0E084918823C1F090E0880F991F38
:1017E000FC01EE58FF4FC591D491FC01E859FF4F21
:1017F000A591B4919FB7F8943881822F8095832367
:101800008883EC91E22BEC939FBF809168038C302E
:1018100008F068C0EEE9F0E02491EAE8F0E0849195
:10182000882399F090E0880F991FFC01EE58FF4F34
:10183000A591B491FC01E859FF4F859194918FB720
:10184000F894EC91E22BEC938FBF80916803282FE2
:1018500030E0F901EE0FFF1FE20FF31FED5BFC4FCD
:101860009081907C946090831092690310926A0337
:101870002CE0622F0E94240F829FB001112430E0DF
:1018800020E0AB01420F531FFA01EE0FFF1FE40FE0
:10189000F51FED5BFC4F908196FD16C02F5F3F4F0B
:1018A0002C30310571F781110FC01092800082E059
:1018B000809381001092850010928400B19A8091EB
:1018C0006F00826080936F00E09168038E2F90E03C
:1018D000FC01EE0FFF1FE80FF91FED5BFC4F80814D
:1018E0008064808384EB90E00E948C008091680289
:1018F000811157C010925302109252028FEF8093C1
:101900005602809357028093580280935902809325
:101910005A0280935B0281E080935C0280935D02B7
:1019200010925F0210925E0280E797E1909361024D
:101930008093600283E090E0909363028093620260
:101940001092650210926402109255021092540295
:101950008091930290919402892B31F480E592E07A
:101960009093940280939302E0914E02F0914F0283
:10197000309721F080E592E09583848380E592E0C2
:1019800090934F0280934E0210926702109266026B
:101990008DE191E0909351028093500281E0809319
:1019A0006802529A81E792E0909353028093520228
:1019B00081E090E090935F0280935E028091390312
:1019C00090913A03A0913B03B0913C03843C29E001
:1019D0009207A105B10520F484EC99E0A0E0B0E005
:1019E0008093390390933A03A0933B03B0933C0355
:1019F00010927102109272028FEF809373028091A5
:101A000036030E94BC0288E091E09093030180932A
:101A1000020180916900837F886080936900E99A60
:101A20008BEC91E00E94DB070E9445020E94250892
:101A30000E94B60797E0D92E20E0E22E20E0F22E99
:101A4000DFEFC1E0809178028823B1F18FB7F8947D
:101A50008090790290907A02A0907B02B0907C02F4
:101A60008FBF8091740290917502A0917602B0911F
:101A70007702A5019401281B390B4A0B5B0BDA0195
:101A8000C901883E9340A105B105A0F08AED91E01F
:101A90000E94E807809104016D2D0E94240F9F5F32
:101AA000909304018092740290927502A092760243
:101AB000B092770210927802809104018823B9F1E4
:101AC000D0937102109272021092730280913603C9
:101AD0000E94BC020E9445020197F9F4E0910401C2
:101AE000E150E730D0F4F0E0E858F24F0C94440FA6
:101AF0007F0DA90DD90D190E2D0E690E830E8CEFD9
:101B000091E00E94E80764EB70E084E190E00E94BD
:101B1000F60784E190E00E94AA08109271021092E8
:101B20007202D0937302809136030E94BC026AE075
:101B300070E080E090E00E94DA03E114F10409F41F
:101B400081CF0E947901882309F47CCF0E94000094
:101B500079CF86E092E00E94E807C09370020E946D
:101B6000C20760ED77E080E090E00E94DA03A8957C
:101B70008AEA90E00E948C0060ED77E080E090E0DF
:101B80000E94DA03A8956AEA70E088E290E00E9479
:101B9000F60764EF71E080E090E00E94DA03A89518
:101BA00088E290E00E94AA080E94B6071092700294
:101BB000B4CF80E192E00E94E807C09370020E94D7
:101BC000C20760ED77E080E090E00E94DA03A8951C
:101BD00085E0A82EB12C04EB10E0C8010E948C0017
:101BE0006AE070E080E090E00E94DA03A89501507E
:101BF0001109043A110589F768EC70E080E090E083
:101C00000E94DA03A89541E0A41AB10821F765EA19
:101C100070E08EE190E00E94F60760E971E080E0FC
:101C200090E00E94DA03A89584EB90E00E948C007B
:101C3000BBCF8AE192E00E94E807C09370020E9445
:101C4000C20760ED77E080E090E00E94DA03A8959B
:101C500064EB70E084E190E04FC084E292E00E9487
:101C6000E807C09370020E94C20760ED77E080E051
:101C700090E00E94DA03A89564EB70E088E090E0C1
:101C80000E94F60760ED77E080E090E00E94DA03C2
:101C9000A89507E010E08BE490E00E948C0064E6D9
:101CA00070E080E090E00E94DA03A89588E290E07E
:101CB0000E948C0064E670E080E090E00E94DA030D
:101CC000A8950150110939F764EF71E080E090E0C8
:101CD000A8CF8EE292E00E94E807C09370020E94B3
:101CE000C20760ED77E080E090E00E94DA03A895FB
:101CF00064EB70E082E390E00E94F60760ED77E02D
:101D000080E090E08ECF88E392E00E94E807C093E5
:101D100070020E94C20760ED77E080E090E00E94D0
:101D2000DA03A89504EB10E0C8010E948C0068E279
:101D300070E080E090E00E94DA03A895015011095C
:101D40000B33110589F703E010E08CE390E00E946B
:101D50008C0068EC70E080E090E00E94DA03A895C7
:101D600088E290E00E948C0060E273E080E090E006
:101D70000E94DA03A8950150110939F768E270E072
:101D800069CF052E97FB1EF400940E94D80E57FDD4
:101D900007D00E94F30E07FC03D04EF40C94D80E2B
:101DA00050954095309521953F4F4F4F5F4F089587
:101DB00090958095709561957F4F8F4F9F4F0895B7
:101DC0000E94150FA59F900DB49F900DA49F800DAC
:101DD000911D11240895B7FF0C94E00E0E94E00EAF
:101DE000821B930B0895A1E21A2EAA1BBB1BFD01B7
:101DF0000DC0AA1FBB1FEE1FFF1FA217B307E407EA
:101E0000F50720F0A21BB30BE40BF50B661F771F41
:101E1000881F991F1A9469F7609570958095909521
:101E20009B01AC01BD01CF010895A29FB001B39FFA
:101E3000C001A39F700D811D1124911DB29F700DD3
:101E4000811D1124911D0895991B79E004C0991FEB
:101E5000961708F0961B881F7A95C9F78095089504
:101E600097FB072E16F4009407D077FD09D00E9447
:101E7000510F07FC05D03EF4909581959F4F089532
:101E8000709561957F4F0895EE0FFF1F0590F491B7
:101E9000E02D09940E94150FB7FF0895821B930B44
:101EA0000895AA1BBB1B51E107C0AA1FBB1FA617A1
:101EB000B70710F0A61BB70B881F991F5A95A9F7F3
:101EC00080959095BC01CD01089581E090E0F89453
:081ED0000C946A0FF894FFCF97
:101ED8000D040D040100000000410941094109D722
:101EE800075F04D307D007CD07000000006107FB98
:101EF80006F906D7075F04D307D0070C019F040033
:101F0800000000AF010F013C01FC016D014B015FB6
:101F1800010D0A00537769746368207072657373E2
:101F28006564212053746F7070696E67206D6F76D9
:101F3800656D656E742E004D6F76696E67206261FF
:101F4800636B20746F203138302066726F6D20709B
:101F58006F736974696F6E3A20005573656C6573A9
:101F68007320426F782076312E37202D2D3E206841
:101F7800747470733A2F2F6769746875622E636F73
:101F88006D2F4B756E7374477261766572656E2F2F
:101F98007573656C657373626F78005377697463E2
:101FA800682073746174653A200048616E646C65DA
:101FB800207377697463682070726573732077691A
:101FC8007468206465626F756E6365004163746947
:101FD8006F6E20313A00416374696F6E20323A00A7
:101FE800416374696F6E20333A00416374696F6EA0
:101FF80020343A00416374696F6E20353A004163BA
:1020080074696F6E20363A00416374696F6E2037C9
:022018003A008C
:00000001FF
